{
  "contractName": "ERC20Token",
  "abi": [
    {
      "inputs": [
        {
          "internalType": "string",
          "name": "_name",
          "type": "string"
        },
        {
          "internalType": "string",
          "name": "_symbol",
          "type": "string"
        },
        {
          "internalType": "uint8",
          "name": "_decimals",
          "type": "uint8"
        },
        {
          "internalType": "uint256",
          "name": "_totalSupply",
          "type": "uint256"
        }
      ],
      "stateMutability": "nonpayable",
      "type": "constructor"
    },
    {
      "anonymous": false,
      "inputs": [
        {
          "indexed": true,
          "internalType": "address",
          "name": "_owner",
          "type": "address"
        },
        {
          "indexed": true,
          "internalType": "address",
          "name": "_spender",
          "type": "address"
        },
        {
          "indexed": false,
          "internalType": "uint256",
          "name": "_value",
          "type": "uint256"
        }
      ],
      "name": "Approval",
      "type": "event"
    },
    {
      "anonymous": false,
      "inputs": [
        {
          "indexed": true,
          "internalType": "address",
          "name": "_from",
          "type": "address"
        },
        {
          "indexed": true,
          "internalType": "address",
          "name": "_to",
          "type": "address"
        },
        {
          "indexed": false,
          "internalType": "uint256",
          "name": "_value",
          "type": "uint256"
        }
      ],
      "name": "Transfer",
      "type": "event"
    },
    {
      "inputs": [
        {
          "internalType": "address",
          "name": "",
          "type": "address"
        },
        {
          "internalType": "address",
          "name": "",
          "type": "address"
        }
      ],
      "name": "approved",
      "outputs": [
        {
          "internalType": "uint256",
          "name": "",
          "type": "uint256"
        }
      ],
      "stateMutability": "view",
      "type": "function",
      "constant": true
    },
    {
      "inputs": [
        {
          "internalType": "address",
          "name": "",
          "type": "address"
        }
      ],
      "name": "balance",
      "outputs": [
        {
          "internalType": "uint256",
          "name": "",
          "type": "uint256"
        }
      ],
      "stateMutability": "view",
      "type": "function",
      "constant": true
    },
    {
      "inputs": [],
      "name": "decimals",
      "outputs": [
        {
          "internalType": "uint8",
          "name": "",
          "type": "uint8"
        }
      ],
      "stateMutability": "view",
      "type": "function",
      "constant": true
    },
    {
      "inputs": [],
      "name": "name",
      "outputs": [
        {
          "internalType": "string",
          "name": "",
          "type": "string"
        }
      ],
      "stateMutability": "view",
      "type": "function",
      "constant": true
    },
    {
      "inputs": [],
      "name": "symbol",
      "outputs": [
        {
          "internalType": "string",
          "name": "",
          "type": "string"
        }
      ],
      "stateMutability": "view",
      "type": "function",
      "constant": true
    },
    {
      "inputs": [],
      "name": "totalSupply",
      "outputs": [
        {
          "internalType": "uint256",
          "name": "",
          "type": "uint256"
        }
      ],
      "stateMutability": "view",
      "type": "function",
      "constant": true
    },
    {
      "inputs": [
        {
          "internalType": "address",
          "name": "_address",
          "type": "address"
        }
      ],
      "name": "balanceOf",
      "outputs": [
        {
          "internalType": "uint256",
          "name": "",
          "type": "uint256"
        }
      ],
      "stateMutability": "view",
      "type": "function",
      "constant": true
    },
    {
      "inputs": [
        {
          "internalType": "address",
          "name": "_to",
          "type": "address"
        },
        {
          "internalType": "uint256",
          "name": "_value",
          "type": "uint256"
        }
      ],
      "name": "transfer",
      "outputs": [
        {
          "internalType": "bool",
          "name": "success",
          "type": "bool"
        }
      ],
      "stateMutability": "nonpayable",
      "type": "function"
    },
    {
      "inputs": [
        {
          "internalType": "address",
          "name": "_from",
          "type": "address"
        },
        {
          "internalType": "address",
          "name": "_to",
          "type": "address"
        },
        {
          "internalType": "uint256",
          "name": "_value",
          "type": "uint256"
        }
      ],
      "name": "transferFrom",
      "outputs": [
        {
          "internalType": "bool",
          "name": "success",
          "type": "bool"
        }
      ],
      "stateMutability": "nonpayable",
      "type": "function"
    },
    {
      "inputs": [
        {
          "internalType": "address",
          "name": "_spender",
          "type": "address"
        },
        {
          "internalType": "uint256",
          "name": "_value",
          "type": "uint256"
        }
      ],
      "name": "approve",
      "outputs": [
        {
          "internalType": "bool",
          "name": "success",
          "type": "bool"
        }
      ],
      "stateMutability": "nonpayable",
      "type": "function"
    },
    {
      "inputs": [
        {
          "internalType": "address",
          "name": "_owner",
          "type": "address"
        },
        {
          "internalType": "address",
          "name": "_spender",
          "type": "address"
        }
      ],
      "name": "allowance",
      "outputs": [
        {
          "internalType": "uint256",
          "name": "",
          "type": "uint256"
        }
      ],
      "stateMutability": "view",
      "type": "function",
      "constant": true
    }
  ],
  "bytecode": "0x60806040527fffffffffffffffffffffffffffffffffffffffffffffffffffffffffffffffff6006553480156200003557600080fd5b50604051620012203803806200122083398181016040528101906200005b9190620003c2565b836002908051906020019062000073929190620000fc565b5082600390805190602001906200008c929190620000fc565b5081600460006101000a81548160ff021916908360ff16021790555080600581905550806000803373ffffffffffffffffffffffffffffffffffffffff1673ffffffffffffffffffffffffffffffffffffffff1681526020019081526020016000208190555050505050620004d7565b8280546200010a90620004a1565b90600052602060002090601f0160209004810192826200012e57600085556200017a565b82601f106200014957805160ff19168380011785556200017a565b828001600101855582156200017a579182015b82811115620001795782518255916020019190600101906200015c565b5b5090506200018991906200018d565b5090565b5b80821115620001a85760008160009055506001016200018e565b5090565b6000604051905090565b600080fd5b600080fd5b600080fd5b600080fd5b6000601f19601f8301169050919050565b7f4e487b7100000000000000000000000000000000000000000000000000000000600052604160045260246000fd5b6200021582620001ca565b810181811067ffffffffffffffff82111715620002375762000236620001db565b5b80604052505050565b60006200024c620001ac565b90506200025a82826200020a565b919050565b600067ffffffffffffffff8211156200027d576200027c620001db565b5b6200028882620001ca565b9050602081019050919050565b60005b83811015620002b557808201518184015260208101905062000298565b83811115620002c5576000848401525b50505050565b6000620002e2620002dc846200025f565b62000240565b905082815260208101848484011115620003015762000300620001c5565b5b6200030e84828562000295565b509392505050565b600082601f8301126200032e576200032d620001c0565b5b815162000340848260208601620002cb565b91505092915050565b600060ff82169050919050565b620003618162000349565b81146200036d57600080fd5b50565b600081519050620003818162000356565b92915050565b6000819050919050565b6200039c8162000387565b8114620003a857600080fd5b50565b600081519050620003bc8162000391565b92915050565b60008060008060808587031215620003df57620003de620001b6565b5b600085015167ffffffffffffffff8111156200040057620003ff620001bb565b5b6200040e8782880162000316565b945050602085015167ffffffffffffffff811115620004325762000431620001bb565b5b620004408782880162000316565b9350506040620004538782880162000370565b92505060606200046687828801620003ab565b91505092959194509250565b7f4e487b7100000000000000000000000000000000000000000000000000000000600052602260045260246000fd5b60006002820490506001821680620004ba57607f821691505b60208210811415620004d157620004d062000472565b5b50919050565b610d3980620004e76000396000f3fe608060405234801561001057600080fd5b50600436106100a95760003560e01c806370a082311161007157806370a082311461016857806395d89b4114610198578063a9059cbb146101b6578063dd62ed3e146101e6578063e3d670d714610216578063f4b1604514610246576100a9565b806306fdde03146100ae578063095ea7b3146100cc57806318160ddd146100fc57806323b872dd1461011a578063313ce5671461014a575b600080fd5b6100b6610276565b6040516100c39190610997565b60405180910390f35b6100e660048036038101906100e19190610a52565b610304565b6040516100f39190610aad565b60405180910390f35b61010461040b565b6040516101119190610ad7565b60405180910390f35b610134600480360381019061012f9190610af2565b610411565b6040516101419190610aad565b60405180910390f35b6101526105eb565b60405161015f9190610b61565b60405180910390f35b610182600480360381019061017d9190610b7c565b6105fe565b60405161018f9190610ad7565b60405180910390f35b6101a0610646565b6040516101ad9190610997565b60405180910390f35b6101d060048036038101906101cb9190610a52565b6106d4565b6040516101dd9190610aad565b60405180910390f35b61020060048036038101906101fb9190610ba9565b61083a565b60405161020d9190610ad7565b60405180910390f35b610230600480360381019061022b9190610b7c565b6108c1565b60405161023d9190610ad7565b60405180910390f35b610260600480360381019061025b9190610ba9565b6108d9565b60405161026d9190610ad7565b60405180910390f35b6002805461028390610c18565b80601f01602080910402602001604051908101604052809291908181526020018280546102af90610c18565b80156102fc5780601f106102d1576101008083540402835291602001916102fc565b820191906000526020600020905b8154815290600101906020018083116102df57829003601f168201915b505050505081565b600081610310336105fe565b101561031b57600080fd5b81600160003373ffffffffffffffffffffffffffffffffffffffff1673ffffffffffffffffffffffffffffffffffffffff16815260200190815260200160002060008573ffffffffffffffffffffffffffffffffffffffff1673ffffffffffffffffffffffffffffffffffffffff168152602001908152602001600020819055508273ffffffffffffffffffffffffffffffffffffffff163373ffffffffffffffffffffffffffffffffffffffff167f8c5be1e5ebec7d5bd14f71427d1e84f3dd0314c0f7b2291e5b200ac8c7c3b925846040516103f99190610ad7565b60405180910390a36001905092915050565b60055481565b60008161041e853361083a565b101561042957600080fd5b81610433856105fe565b101561043e57600080fd5b81600160008673ffffffffffffffffffffffffffffffffffffffff1673ffffffffffffffffffffffffffffffffffffffff16815260200190815260200160002060003373ffffffffffffffffffffffffffffffffffffffff1673ffffffffffffffffffffffffffffffffffffffff16815260200190815260200160002060008282546104ca9190610c79565b92505081905550816000808673ffffffffffffffffffffffffffffffffffffffff1673ffffffffffffffffffffffffffffffffffffffff168152602001908152602001600020600082825461051f9190610c79565b92505081905550816000808573ffffffffffffffffffffffffffffffffffffffff1673ffffffffffffffffffffffffffffffffffffffff16815260200190815260200160002060008282546105749190610cad565b925050819055508273ffffffffffffffffffffffffffffffffffffffff168473ffffffffffffffffffffffffffffffffffffffff167fddf252ad1be2c89b69c2b068fc378daa952ba7f163c4a11628f55a4df523b3ef846040516105d89190610ad7565b60405180910390a3600190509392505050565b600460009054906101000a900460ff1681565b60008060008373ffffffffffffffffffffffffffffffffffffffff1673ffffffffffffffffffffffffffffffffffffffff168152602001908152602001600020549050919050565b6003805461065390610c18565b80601f016020809104026020016040519081016040528092919081815260200182805461067f90610c18565b80156106cc5780601f106106a1576101008083540402835291602001916106cc565b820191906000526020600020905b8154815290600101906020018083116106af57829003601f168201915b505050505081565b6000816000803373ffffffffffffffffffffffffffffffffffffffff1673ffffffffffffffffffffffffffffffffffffffff16815260200190815260200160002054101561072157600080fd5b816000803373ffffffffffffffffffffffffffffffffffffffff1673ffffffffffffffffffffffffffffffffffffffff168152602001908152602001600020600082825461076f9190610c79565b92505081905550816000808573ffffffffffffffffffffffffffffffffffffffff1673ffffffffffffffffffffffffffffffffffffffff16815260200190815260200160002060008282546107c49190610cad565b925050819055508273ffffffffffffffffffffffffffffffffffffffff163373ffffffffffffffffffffffffffffffffffffffff167fddf252ad1be2c89b69c2b068fc378daa952ba7f163c4a11628f55a4df523b3ef846040516108289190610ad7565b60405180910390a36001905092915050565b6000600160008473ffffffffffffffffffffffffffffffffffffffff1673ffffffffffffffffffffffffffffffffffffffff16815260200190815260200160002060008373ffffffffffffffffffffffffffffffffffffffff1673ffffffffffffffffffffffffffffffffffffffff16815260200190815260200160002054905092915050565b60006020528060005260406000206000915090505481565b6001602052816000526040600020602052806000526040600020600091509150505481565b600081519050919050565b600082825260208201905092915050565b60005b8381101561093857808201518184015260208101905061091d565b83811115610947576000848401525b50505050565b6000601f19601f8301169050919050565b6000610969826108fe565b6109738185610909565b935061098381856020860161091a565b61098c8161094d565b840191505092915050565b600060208201905081810360008301526109b1818461095e565b905092915050565b600080fd5b600073ffffffffffffffffffffffffffffffffffffffff82169050919050565b60006109e9826109be565b9050919050565b6109f9816109de565b8114610a0457600080fd5b50565b600081359050610a16816109f0565b92915050565b6000819050919050565b610a2f81610a1c565b8114610a3a57600080fd5b50565b600081359050610a4c81610a26565b92915050565b60008060408385031215610a6957610a686109b9565b5b6000610a7785828601610a07565b9250506020610a8885828601610a3d565b9150509250929050565b60008115159050919050565b610aa781610a92565b82525050565b6000602082019050610ac26000830184610a9e565b92915050565b610ad181610a1c565b82525050565b6000602082019050610aec6000830184610ac8565b92915050565b600080600060608486031215610b0b57610b0a6109b9565b5b6000610b1986828701610a07565b9350506020610b2a86828701610a07565b9250506040610b3b86828701610a3d565b9150509250925092565b600060ff82169050919050565b610b5b81610b45565b82525050565b6000602082019050610b766000830184610b52565b92915050565b600060208284031215610b9257610b916109b9565b5b6000610ba084828501610a07565b91505092915050565b60008060408385031215610bc057610bbf6109b9565b5b6000610bce85828601610a07565b9250506020610bdf85828601610a07565b9150509250929050565b7f4e487b7100000000000000000000000000000000000000000000000000000000600052602260045260246000fd5b60006002820490506001821680610c3057607f821691505b60208210811415610c4457610c43610be9565b5b50919050565b7f4e487b7100000000000000000000000000000000000000000000000000000000600052601160045260246000fd5b6000610c8482610a1c565b9150610c8f83610a1c565b925082821015610ca257610ca1610c4a565b5b828203905092915050565b6000610cb882610a1c565b9150610cc383610a1c565b9250827fffffffffffffffffffffffffffffffffffffffffffffffffffffffffffffffff03821115610cf857610cf7610c4a565b5b82820190509291505056fea2646970667358221220919e9fb1dd125c957a3bed2ac653bbf97d3c6db58aa880bffc967b580695c30964736f6c634300080b0033",
  "immutableReferences": {},
  "source": "//SPDX License Identifier: MIT\npragma solidity ^0.8.11;\nimport './EIP20Interface.sol';\n\ncontract ERC20Token is EIP20Interface {\n\n//@dev -- \nmapping(address => uint256) public balance;\n\nmapping(address => mapping(address => uint256)) public approved;\n\nstring public name;\nstring public symbol;\nuint8 public decimals;\nuint256 public totalSupply;\nuint256 MAX_INT = type(uint256).max; \n\nconstructor(string memory _name, string memory _symbol, uint8 _decimals, uint256 _totalSupply){\nname = _name;\nsymbol = _symbol;\ndecimals = _decimals;\ntotalSupply = _totalSupply;\nbalance[msg.sender] = _totalSupply;\n}\n\nfunction balanceOf(address _address) public view returns (uint256){\n return balance[_address];\n}\n\n\nfunction transfer(address _to, uint256 _value) public returns (bool success){\nrequire( balance[msg.sender] >= _value);\nbalance[msg.sender] -= _value;\n//require(balance[_to]+_value <= MAX_INT);\nbalance[_to] += _value;\nemit Transfer(msg.sender, _to, _value);\nreturn true;\n}\n\nfunction transferFrom(address _from, address _to, uint256 _value) public returns (bool success){\nrequire(allowance(_from, msg.sender) >= _value);\nrequire(balanceOf(_from) >= _value);\napproved[_from][msg.sender] -= _value;\nbalance[_from] -= _value;\nbalance[_to] += _value;\nemit Transfer(_from, _to, _value);\nreturn true;\n}\n\nfunction approve(address _spender, uint256 _value) public returns (bool success){\n require(balanceOf(msg.sender) >= _value);\n //set approved value\n approved[msg.sender][_spender]= _value;\n //fire approve event\n emit Approval(msg.sender, _spender,  _value);\n return true;\n}\n\nfunction allowance(address _owner, address _spender)  public view returns (uint256 ){\nreturn approved[_owner][_spender];\n}\n\n\n}",
  "sourcePath": "/home/falcon46/Documents/Portfolio/main/ERC20-Token/contracts/ERC20Token.sol",
  "compiler": {
    "name": "solc",
    "version": "0.8.11+commit.d7f03943.Emscripten.clang"
  },
  "schemaVersion": "3.4.4",
  "updatedAt": "2022-02-03T16:22:16.743Z",
  "networkType": "ethereum",
  "devdoc": {
    "kind": "dev",
    "methods": {},
    "version": 1
  },
  "userdoc": {
    "kind": "user",
    "methods": {},
    "version": 1
  }
}