{
  "contractName": "ICO",
  "abi": [
    {
      "inputs": [
        {
          "internalType": "string",
          "name": "_tokenName",
          "type": "string"
        },
        {
          "internalType": "string",
          "name": "_tokenSymbol",
          "type": "string"
        },
        {
          "internalType": "uint8",
          "name": "_tokenDecimals",
          "type": "uint8"
        },
        {
          "internalType": "uint256",
          "name": "_tokenSupply",
          "type": "uint256"
        }
      ],
      "stateMutability": "nonpayable",
      "type": "constructor"
    },
    {
      "inputs": [],
      "name": "admin_",
      "outputs": [
        {
          "internalType": "address payable",
          "name": "",
          "type": "address"
        }
      ],
      "stateMutability": "view",
      "type": "function",
      "constant": true
    },
    {
      "inputs": [],
      "name": "amountRaised_",
      "outputs": [
        {
          "internalType": "uint256",
          "name": "",
          "type": "uint256"
        }
      ],
      "stateMutability": "view",
      "type": "function",
      "constant": true
    },
    {
      "inputs": [],
      "name": "availableTokens_",
      "outputs": [
        {
          "internalType": "uint256",
          "name": "",
          "type": "uint256"
        }
      ],
      "stateMutability": "view",
      "type": "function",
      "constant": true
    },
    {
      "inputs": [],
      "name": "endTime_",
      "outputs": [
        {
          "internalType": "uint256",
          "name": "",
          "type": "uint256"
        }
      ],
      "stateMutability": "view",
      "type": "function",
      "constant": true
    },
    {
      "inputs": [
        {
          "internalType": "uint256",
          "name": "",
          "type": "uint256"
        }
      ],
      "name": "investors",
      "outputs": [
        {
          "internalType": "address",
          "name": "",
          "type": "address"
        }
      ],
      "stateMutability": "view",
      "type": "function",
      "constant": true
    },
    {
      "inputs": [],
      "name": "maxTokens_",
      "outputs": [
        {
          "internalType": "uint256",
          "name": "",
          "type": "uint256"
        }
      ],
      "stateMutability": "view",
      "type": "function",
      "constant": true
    },
    {
      "inputs": [],
      "name": "minTokens_",
      "outputs": [
        {
          "internalType": "uint256",
          "name": "",
          "type": "uint256"
        }
      ],
      "stateMutability": "view",
      "type": "function",
      "constant": true
    },
    {
      "inputs": [],
      "name": "priceOfToken_",
      "outputs": [
        {
          "internalType": "uint256",
          "name": "",
          "type": "uint256"
        }
      ],
      "stateMutability": "view",
      "type": "function",
      "constant": true
    },
    {
      "inputs": [],
      "name": "token",
      "outputs": [
        {
          "internalType": "contract ERC20Token",
          "name": "",
          "type": "address"
        }
      ],
      "stateMutability": "view",
      "type": "function",
      "constant": true
    },
    {
      "inputs": [],
      "name": "tokensReleased_",
      "outputs": [
        {
          "internalType": "bool",
          "name": "",
          "type": "bool"
        }
      ],
      "stateMutability": "view",
      "type": "function",
      "constant": true
    },
    {
      "inputs": [
        {
          "internalType": "uint256",
          "name": "_icoInterval",
          "type": "uint256"
        },
        {
          "internalType": "uint256",
          "name": "_tokensAvailable",
          "type": "uint256"
        },
        {
          "internalType": "uint256",
          "name": "_minPurchase",
          "type": "uint256"
        },
        {
          "internalType": "uint256",
          "name": "_maxPurchase",
          "type": "uint256"
        },
        {
          "internalType": "uint256",
          "name": "_tokenPrice",
          "type": "uint256"
        }
      ],
      "name": "startSale",
      "outputs": [],
      "stateMutability": "nonpayable",
      "type": "function"
    },
    {
      "inputs": [
        {
          "internalType": "uint256",
          "name": "_quantity",
          "type": "uint256"
        }
      ],
      "name": "buy",
      "outputs": [
        {
          "internalType": "bool",
          "name": "success",
          "type": "bool"
        }
      ],
      "stateMutability": "payable",
      "type": "function",
      "payable": true
    },
    {
      "inputs": [],
      "name": "releaseTokens",
      "outputs": [],
      "stateMutability": "nonpayable",
      "type": "function"
    },
    {
      "inputs": [
        {
          "internalType": "address payable",
          "name": "_to",
          "type": "address"
        }
      ],
      "name": "withdraw",
      "outputs": [],
      "stateMutability": "nonpayable",
      "type": "function"
    },
    {
      "inputs": [],
      "name": "close",
      "outputs": [],
      "stateMutability": "nonpayable",
      "type": "function"
    }
  ],
  "bytecode": "0x60806040523480156200001157600080fd5b5060405162002a1138038062002a11833981810160405281019062000037919062000324565b83838383604051620000499062000100565b62000058949392919062000453565b604051809103906000f08015801562000075573d6000803e3d6000fd5b506000806101000a81548173ffffffffffffffffffffffffffffffffffffffff021916908373ffffffffffffffffffffffffffffffffffffffff16021790555033600160006101000a81548173ffffffffffffffffffffffffffffffffffffffff021916908373ffffffffffffffffffffffffffffffffffffffff16021790555050505050620004ae565b61122080620017f183390190565b6000604051905090565b600080fd5b600080fd5b600080fd5b600080fd5b6000601f19601f8301169050919050565b7f4e487b7100000000000000000000000000000000000000000000000000000000600052604160045260246000fd5b62000177826200012c565b810181811067ffffffffffffffff821117156200019957620001986200013d565b5b80604052505050565b6000620001ae6200010e565b9050620001bc82826200016c565b919050565b600067ffffffffffffffff821115620001df57620001de6200013d565b5b620001ea826200012c565b9050602081019050919050565b60005b8381101562000217578082015181840152602081019050620001fa565b8381111562000227576000848401525b50505050565b6000620002446200023e84620001c1565b620001a2565b90508281526020810184848401111562000263576200026262000127565b5b62000270848285620001f7565b509392505050565b600082601f83011262000290576200028f62000122565b5b8151620002a28482602086016200022d565b91505092915050565b600060ff82169050919050565b620002c381620002ab565b8114620002cf57600080fd5b50565b600081519050620002e381620002b8565b92915050565b6000819050919050565b620002fe81620002e9565b81146200030a57600080fd5b50565b6000815190506200031e81620002f3565b92915050565b6000806000806080858703121562000341576200034062000118565b5b600085015167ffffffffffffffff8111156200036257620003616200011d565b5b620003708782880162000278565b945050602085015167ffffffffffffffff8111156200039457620003936200011d565b5b620003a28782880162000278565b9350506040620003b587828801620002d2565b9250506060620003c8878288016200030d565b91505092959194509250565b600081519050919050565b600082825260208201905092915050565b6000620003fd82620003d4565b620004098185620003df565b93506200041b818560208601620001f7565b62000426816200012c565b840191505092915050565b6200043c81620002ab565b82525050565b6200044d81620002e9565b82525050565b600060808201905081810360008301526200046f8187620003f0565b90508181036020830152620004858186620003f0565b905062000496604083018562000431565b620004a5606083018462000442565b95945050505050565b61133380620004be6000396000f3fe6080604052600436106100e85760003560e01c8063a4baf7501161008a578063d7fb4f1d11610059578063d7fb4f1d146102ac578063d96a094a146102d7578063d98a241a14610307578063fc0c546a14610332576100e8565b8063a4baf75014610214578063a61334c71461023f578063a96f86681461026a578063cb42111e14610281576100e8565b806343d726d6116100c657806343d726d61461017e57806351cff8d9146101955780635f4ebabe146101be5780639dea9199146101e9576100e8565b80631dc4f9ea146100ed5780633feb5f2b14610116578063419e3da514610153575b600080fd5b3480156100f957600080fd5b50610114600480360381019061010f9190610c0e565b61035d565b005b34801561012257600080fd5b5061013d60048036038101906101389190610c89565b6105d7565b60405161014a9190610cf7565b60405180910390f35b34801561015f57600080fd5b50610168610616565b6040516101759190610d21565b60405180910390f35b34801561018a57600080fd5b5061019361061c565b005b3480156101a157600080fd5b506101bc60048036038101906101b79190610d7a565b6106b1565b005b3480156101ca57600080fd5b506101d3610793565b6040516101e09190610d21565b60405180910390f35b3480156101f557600080fd5b506101fe610799565b60405161020b9190610d21565b60405180910390f35b34801561022057600080fd5b5061022961079f565b6040516102369190610db6565b60405180910390f35b34801561024b57600080fd5b506102546107c5565b6040516102619190610d21565b60405180910390f35b34801561027657600080fd5b5061027f6107cb565b005b34801561028d57600080fd5b506102966109ab565b6040516102a39190610dec565b60405180910390f35b3480156102b857600080fd5b506102c16109be565b6040516102ce9190610d21565b60405180910390f35b6102f160048036038101906102ec9190610c89565b6109c4565b6040516102fe9190610dec565b60405180910390f35b34801561031357600080fd5b5061031c610ba9565b6040516103299190610d21565b60405180910390f35b34801561033e57600080fd5b50610347610baf565b6040516103549190610e66565b60405180910390f35b600160009054906101000a900473ffffffffffffffffffffffffffffffffffffffff1673ffffffffffffffffffffffffffffffffffffffff163373ffffffffffffffffffffffffffffffffffffffff16146103b757600080fd5b600060025414806103ca57504260025411155b6103d357600080fd5b60008511610416576040517f08c379a000000000000000000000000000000000000000000000000000000000815260040161040d90610ede565b60405180910390fd5b84426104229190610f2d565b6002819055506000841161046b576040517f08c379a000000000000000000000000000000000000000000000000000000000815260040161046290610fcf565b60405180910390fd5b8360038190555060008311801561050f575060008054906101000a900473ffffffffffffffffffffffffffffffffffffffff1673ffffffffffffffffffffffffffffffffffffffff166318160ddd6040518163ffffffff1660e01b8152600401602060405180830381865afa1580156104e8573d6000803e3d6000fd5b505050506040513d601f19601f8201168201806040525081019061050c9190611004565b83105b61051857600080fd5b8260048190555060008054906101000a900473ffffffffffffffffffffffffffffffffffffffff1673ffffffffffffffffffffffffffffffffffffffff166318160ddd6040518163ffffffff1660e01b8152600401602060405180830381865afa15801561058a573d6000803e3d6000fd5b505050506040513d601f19601f820116820180604052508101906105ae9190611004565b8211156105ba57600080fd5b816005819055508060068190555060006007819055505050505050565b600981815481106105e757600080fd5b906000526020600020016000915054906101000a900473ffffffffffffffffffffffffffffffffffffffff1681565b60045481565b600160009054906101000a900473ffffffffffffffffffffffffffffffffffffffff1673ffffffffffffffffffffffffffffffffffffffff163373ffffffffffffffffffffffffffffffffffffffff161461067657600080fd5b600160009054906101000a900473ffffffffffffffffffffffffffffffffffffffff1673ffffffffffffffffffffffffffffffffffffffff16ff5b600160009054906101000a900473ffffffffffffffffffffffffffffffffffffffff1673ffffffffffffffffffffffffffffffffffffffff163373ffffffffffffffffffffffffffffffffffffffff161461070b57600080fd5b6000600254148061071e57504260025411155b61072757600080fd5b60011515600860009054906101000a900460ff1615151461074757600080fd5b8073ffffffffffffffffffffffffffffffffffffffff166108fc6007549081150290604051600060405180830381858888f1935050505015801561078f573d6000803e3d6000fd5b5050565b60055481565b60075481565b600160009054906101000a900473ffffffffffffffffffffffffffffffffffffffff1681565b60065481565b600160009054906101000a900473ffffffffffffffffffffffffffffffffffffffff1673ffffffffffffffffffffffffffffffffffffffff163373ffffffffffffffffffffffffffffffffffffffff161461082557600080fd5b6000600254148061083857504260025411155b61084157600080fd5b60008060009054906101000a900473ffffffffffffffffffffffffffffffffffffffff16905060005b60098054905081101561098c5760006009828154811061088d5761088c611031565b5b9060005260206000200160009054906101000a900473ffffffffffffffffffffffffffffffffffffffff1690508273ffffffffffffffffffffffffffffffffffffffff1663a9059cbb82600a60008573ffffffffffffffffffffffffffffffffffffffff1673ffffffffffffffffffffffffffffffffffffffff168152602001908152602001600020546040518363ffffffff1660e01b8152600401610934929190611060565b6020604051808303816000875af1158015610953573d6000803e3d6000fd5b505050506040513d601f19601f8201168201806040525081019061097791906110b5565b50508080610984906110e2565b91505061086a565b506001600860006101000a81548160ff02191690831515021790555050565b600860009054906101000a900460ff1681565b60025481565b600060025442106109d457600080fd5b600454821180156109e6575060055482105b610a25576040517f08c379a0000000000000000000000000000000000000000000000000000000008152600401610a1c90611177565b60405180910390fd5b60065482610a339190611197565b341015610a75576040517f08c379a0000000000000000000000000000000000000000000000000000000008152600401610a6c9061123d565b60405180910390fd5b816003541015610aba576040517f08c379a0000000000000000000000000000000000000000000000000000000008152600401610ab1906112a9565b60405180910390fd5b81600a60003373ffffffffffffffffffffffffffffffffffffffff1673ffffffffffffffffffffffffffffffffffffffff168152602001908152602001600020819055508160036000828254610b1091906112c9565b925050819055506009339080600181540180825580915050600190039060005260206000200160009091909190916101000a81548173ffffffffffffffffffffffffffffffffffffffff021916908373ffffffffffffffffffffffffffffffffffffffff16021790555060065482610b889190611197565b60076000828254610b999190610f2d565b9250508190555060019050919050565b60035481565b60008054906101000a900473ffffffffffffffffffffffffffffffffffffffff1681565b600080fd5b6000819050919050565b610beb81610bd8565b8114610bf657600080fd5b50565b600081359050610c0881610be2565b92915050565b600080600080600060a08688031215610c2a57610c29610bd3565b5b6000610c3888828901610bf9565b9550506020610c4988828901610bf9565b9450506040610c5a88828901610bf9565b9350506060610c6b88828901610bf9565b9250506080610c7c88828901610bf9565b9150509295509295909350565b600060208284031215610c9f57610c9e610bd3565b5b6000610cad84828501610bf9565b91505092915050565b600073ffffffffffffffffffffffffffffffffffffffff82169050919050565b6000610ce182610cb6565b9050919050565b610cf181610cd6565b82525050565b6000602082019050610d0c6000830184610ce8565b92915050565b610d1b81610bd8565b82525050565b6000602082019050610d366000830184610d12565b92915050565b6000610d4782610cb6565b9050919050565b610d5781610d3c565b8114610d6257600080fd5b50565b600081359050610d7481610d4e565b92915050565b600060208284031215610d9057610d8f610bd3565b5b6000610d9e84828501610d65565b91505092915050565b610db081610d3c565b82525050565b6000602082019050610dcb6000830184610da7565b92915050565b60008115159050919050565b610de681610dd1565b82525050565b6000602082019050610e016000830184610ddd565b92915050565b6000819050919050565b6000610e2c610e27610e2284610cb6565b610e07565b610cb6565b9050919050565b6000610e3e82610e11565b9050919050565b6000610e5082610e33565b9050919050565b610e6081610e45565b82525050565b6000602082019050610e7b6000830184610e57565b92915050565b600082825260208201905092915050565b7f69636f20696e74657276616c203e300000000000000000000000000000000000600082015250565b6000610ec8600f83610e81565b9150610ed382610e92565b602082019050919050565b60006020820190508181036000830152610ef781610ebb565b9050919050565b7f4e487b7100000000000000000000000000000000000000000000000000000000600052601160045260246000fd5b6000610f3882610bd8565b9150610f4383610bd8565b9250827fffffffffffffffffffffffffffffffffffffffffffffffffffffffffffffffff03821115610f7857610f77610efe565b5b828201905092915050565b7f746f6b656e7320617661696c61626c6520666f722049434f203e300000000000600082015250565b6000610fb9601b83610e81565b9150610fc482610f83565b602082019050919050565b60006020820190508181036000830152610fe881610fac565b9050919050565b600081519050610ffe81610be2565b92915050565b60006020828403121561101a57611019610bd3565b5b600061102884828501610fef565b91505092915050565b7f4e487b7100000000000000000000000000000000000000000000000000000000600052603260045260246000fd5b60006040820190506110756000830185610ce8565b6110826020830184610d12565b9392505050565b61109281610dd1565b811461109d57600080fd5b50565b6000815190506110af81611089565b92915050565b6000602082840312156110cb576110ca610bd3565b5b60006110d9848285016110a0565b91505092915050565b60006110ed82610bd8565b91507fffffffffffffffffffffffffffffffffffffffffffffffffffffffffffffffff8214156111205761111f610efe565b5b600182019050919050565b7f6f7574206f6620746f6b656e206c696d69747300000000000000000000000000600082015250565b6000611161601383610e81565b915061116c8261112b565b602082019050919050565b6000602082019050818103600083015261119081611154565b9050919050565b60006111a282610bd8565b91506111ad83610bd8565b9250817fffffffffffffffffffffffffffffffffffffffffffffffffffffffffffffffff04831182151516156111e6576111e5610efe565b5b828202905092915050565b7f4554482073656e7420697320696e73756666696369656e740000000000000000600082015250565b6000611227601883610e81565b9150611232826111f1565b602082019050919050565b600060208201905081810360008301526112568161121a565b9050919050565b7f6c65737320746f6b656e732061726520617661696c61626c6500000000000000600082015250565b6000611293601983610e81565b915061129e8261125d565b602082019050919050565b600060208201905081810360008301526112c281611286565b9050919050565b60006112d482610bd8565b91506112df83610bd8565b9250828210156112f2576112f1610efe565b5b82820390509291505056fea264697066735822122002ae296a7664c670eec1174d14b8d092adccb568433326d22c2e5fa2053ad96e64736f6c634300080b003360806040527fffffffffffffffffffffffffffffffffffffffffffffffffffffffffffffffff6006553480156200003557600080fd5b50604051620012203803806200122083398181016040528101906200005b9190620003c2565b836002908051906020019062000073929190620000fc565b5082600390805190602001906200008c929190620000fc565b5081600460006101000a81548160ff021916908360ff16021790555080600581905550806000803373ffffffffffffffffffffffffffffffffffffffff1673ffffffffffffffffffffffffffffffffffffffff1681526020019081526020016000208190555050505050620004d7565b8280546200010a90620004a1565b90600052602060002090601f0160209004810192826200012e57600085556200017a565b82601f106200014957805160ff19168380011785556200017a565b828001600101855582156200017a579182015b82811115620001795782518255916020019190600101906200015c565b5b5090506200018991906200018d565b5090565b5b80821115620001a85760008160009055506001016200018e565b5090565b6000604051905090565b600080fd5b600080fd5b600080fd5b600080fd5b6000601f19601f8301169050919050565b7f4e487b7100000000000000000000000000000000000000000000000000000000600052604160045260246000fd5b6200021582620001ca565b810181811067ffffffffffffffff82111715620002375762000236620001db565b5b80604052505050565b60006200024c620001ac565b90506200025a82826200020a565b919050565b600067ffffffffffffffff8211156200027d576200027c620001db565b5b6200028882620001ca565b9050602081019050919050565b60005b83811015620002b557808201518184015260208101905062000298565b83811115620002c5576000848401525b50505050565b6000620002e2620002dc846200025f565b62000240565b905082815260208101848484011115620003015762000300620001c5565b5b6200030e84828562000295565b509392505050565b600082601f8301126200032e576200032d620001c0565b5b815162000340848260208601620002cb565b91505092915050565b600060ff82169050919050565b620003618162000349565b81146200036d57600080fd5b50565b600081519050620003818162000356565b92915050565b6000819050919050565b6200039c8162000387565b8114620003a857600080fd5b50565b600081519050620003bc8162000391565b92915050565b60008060008060808587031215620003df57620003de620001b6565b5b600085015167ffffffffffffffff8111156200040057620003ff620001bb565b5b6200040e8782880162000316565b945050602085015167ffffffffffffffff811115620004325762000431620001bb565b5b620004408782880162000316565b9350506040620004538782880162000370565b92505060606200046687828801620003ab565b91505092959194509250565b7f4e487b7100000000000000000000000000000000000000000000000000000000600052602260045260246000fd5b60006002820490506001821680620004ba57607f821691505b60208210811415620004d157620004d062000472565b5b50919050565b610d3980620004e76000396000f3fe608060405234801561001057600080fd5b50600436106100a95760003560e01c806370a082311161007157806370a082311461016857806395d89b4114610198578063a9059cbb146101b6578063dd62ed3e146101e6578063e3d670d714610216578063f4b1604514610246576100a9565b806306fdde03146100ae578063095ea7b3146100cc57806318160ddd146100fc57806323b872dd1461011a578063313ce5671461014a575b600080fd5b6100b6610276565b6040516100c39190610997565b60405180910390f35b6100e660048036038101906100e19190610a52565b610304565b6040516100f39190610aad565b60405180910390f35b61010461040b565b6040516101119190610ad7565b60405180910390f35b610134600480360381019061012f9190610af2565b610411565b6040516101419190610aad565b60405180910390f35b6101526105eb565b60405161015f9190610b61565b60405180910390f35b610182600480360381019061017d9190610b7c565b6105fe565b60405161018f9190610ad7565b60405180910390f35b6101a0610646565b6040516101ad9190610997565b60405180910390f35b6101d060048036038101906101cb9190610a52565b6106d4565b6040516101dd9190610aad565b60405180910390f35b61020060048036038101906101fb9190610ba9565b61083a565b60405161020d9190610ad7565b60405180910390f35b610230600480360381019061022b9190610b7c565b6108c1565b60405161023d9190610ad7565b60405180910390f35b610260600480360381019061025b9190610ba9565b6108d9565b60405161026d9190610ad7565b60405180910390f35b6002805461028390610c18565b80601f01602080910402602001604051908101604052809291908181526020018280546102af90610c18565b80156102fc5780601f106102d1576101008083540402835291602001916102fc565b820191906000526020600020905b8154815290600101906020018083116102df57829003601f168201915b505050505081565b600081610310336105fe565b101561031b57600080fd5b81600160003373ffffffffffffffffffffffffffffffffffffffff1673ffffffffffffffffffffffffffffffffffffffff16815260200190815260200160002060008573ffffffffffffffffffffffffffffffffffffffff1673ffffffffffffffffffffffffffffffffffffffff168152602001908152602001600020819055508273ffffffffffffffffffffffffffffffffffffffff163373ffffffffffffffffffffffffffffffffffffffff167f8c5be1e5ebec7d5bd14f71427d1e84f3dd0314c0f7b2291e5b200ac8c7c3b925846040516103f99190610ad7565b60405180910390a36001905092915050565b60055481565b60008161041e853361083a565b101561042957600080fd5b81610433856105fe565b101561043e57600080fd5b81600160008673ffffffffffffffffffffffffffffffffffffffff1673ffffffffffffffffffffffffffffffffffffffff16815260200190815260200160002060003373ffffffffffffffffffffffffffffffffffffffff1673ffffffffffffffffffffffffffffffffffffffff16815260200190815260200160002060008282546104ca9190610c79565b92505081905550816000808673ffffffffffffffffffffffffffffffffffffffff1673ffffffffffffffffffffffffffffffffffffffff168152602001908152602001600020600082825461051f9190610c79565b92505081905550816000808573ffffffffffffffffffffffffffffffffffffffff1673ffffffffffffffffffffffffffffffffffffffff16815260200190815260200160002060008282546105749190610cad565b925050819055508273ffffffffffffffffffffffffffffffffffffffff168473ffffffffffffffffffffffffffffffffffffffff167fddf252ad1be2c89b69c2b068fc378daa952ba7f163c4a11628f55a4df523b3ef846040516105d89190610ad7565b60405180910390a3600190509392505050565b600460009054906101000a900460ff1681565b60008060008373ffffffffffffffffffffffffffffffffffffffff1673ffffffffffffffffffffffffffffffffffffffff168152602001908152602001600020549050919050565b6003805461065390610c18565b80601f016020809104026020016040519081016040528092919081815260200182805461067f90610c18565b80156106cc5780601f106106a1576101008083540402835291602001916106cc565b820191906000526020600020905b8154815290600101906020018083116106af57829003601f168201915b505050505081565b6000816000803373ffffffffffffffffffffffffffffffffffffffff1673ffffffffffffffffffffffffffffffffffffffff16815260200190815260200160002054101561072157600080fd5b816000803373ffffffffffffffffffffffffffffffffffffffff1673ffffffffffffffffffffffffffffffffffffffff168152602001908152602001600020600082825461076f9190610c79565b92505081905550816000808573ffffffffffffffffffffffffffffffffffffffff1673ffffffffffffffffffffffffffffffffffffffff16815260200190815260200160002060008282546107c49190610cad565b925050819055508273ffffffffffffffffffffffffffffffffffffffff163373ffffffffffffffffffffffffffffffffffffffff167fddf252ad1be2c89b69c2b068fc378daa952ba7f163c4a11628f55a4df523b3ef846040516108289190610ad7565b60405180910390a36001905092915050565b6000600160008473ffffffffffffffffffffffffffffffffffffffff1673ffffffffffffffffffffffffffffffffffffffff16815260200190815260200160002060008373ffffffffffffffffffffffffffffffffffffffff1673ffffffffffffffffffffffffffffffffffffffff16815260200190815260200160002054905092915050565b60006020528060005260406000206000915090505481565b6001602052816000526040600020602052806000526040600020600091509150505481565b600081519050919050565b600082825260208201905092915050565b60005b8381101561093857808201518184015260208101905061091d565b83811115610947576000848401525b50505050565b6000601f19601f8301169050919050565b6000610969826108fe565b6109738185610909565b935061098381856020860161091a565b61098c8161094d565b840191505092915050565b600060208201905081810360008301526109b1818461095e565b905092915050565b600080fd5b600073ffffffffffffffffffffffffffffffffffffffff82169050919050565b60006109e9826109be565b9050919050565b6109f9816109de565b8114610a0457600080fd5b50565b600081359050610a16816109f0565b92915050565b6000819050919050565b610a2f81610a1c565b8114610a3a57600080fd5b50565b600081359050610a4c81610a26565b92915050565b60008060408385031215610a6957610a686109b9565b5b6000610a7785828601610a07565b9250506020610a8885828601610a3d565b9150509250929050565b60008115159050919050565b610aa781610a92565b82525050565b6000602082019050610ac26000830184610a9e565b92915050565b610ad181610a1c565b82525050565b6000602082019050610aec6000830184610ac8565b92915050565b600080600060608486031215610b0b57610b0a6109b9565b5b6000610b1986828701610a07565b9350506020610b2a86828701610a07565b9250506040610b3b86828701610a3d565b9150509250925092565b600060ff82169050919050565b610b5b81610b45565b82525050565b6000602082019050610b766000830184610b52565b92915050565b600060208284031215610b9257610b916109b9565b5b6000610ba084828501610a07565b91505092915050565b60008060408385031215610bc057610bbf6109b9565b5b6000610bce85828601610a07565b9250506020610bdf85828601610a07565b9150509250929050565b7f4e487b7100000000000000000000000000000000000000000000000000000000600052602260045260246000fd5b60006002820490506001821680610c3057607f821691505b60208210811415610c4457610c43610be9565b5b50919050565b7f4e487b7100000000000000000000000000000000000000000000000000000000600052601160045260246000fd5b6000610c8482610a1c565b9150610c8f83610a1c565b925082821015610ca257610ca1610c4a565b5b828203905092915050565b6000610cb882610a1c565b9150610cc383610a1c565b9250827fffffffffffffffffffffffffffffffffffffffffffffffffffffffffffffffff03821115610cf857610cf7610c4a565b5b82820190509291505056fea2646970667358221220d158b820394b84c9d2961af3efcb98d137015a3e5e9110536e0c80d6b9c44fa664736f6c634300080b0033",
  "immutableReferences": {},
  "source": "//SPDX-License-Identifier: MIT\npragma solidity ^0.8.11;\nimport  './ERC20Token.sol';\ncontract ICO{\n    \n    ERC20Token public token;\n    address payable public admin_;\n    uint256 public endTime_;\n    uint256 public availableTokens_;\n    uint256 public minTokens_;\n    uint256 public maxTokens_;\n    uint256 public priceOfToken_;\n    uint256 public amountRaised_;\n    bool public tokensReleased_;\n    address[] public investors;\n    mapping (address => uint) purchaseRecord;\n\n\n\nconstructor(\n    string memory _tokenName, string memory _tokenSymbol, uint8 _tokenDecimals, uint _tokenSupply\n    ){\n    token = new ERC20Token(_tokenName, _tokenSymbol, _tokenDecimals, _tokenSupply);\n    admin_ = payable(msg.sender); \n}\n\nfunction startSale(\n    uint _icoInterval, uint _tokensAvailable, uint _minPurchase, uint _maxPurchase, uint _tokenPrice\n    ) public onlyAdmin icoInactive{\n        require(_icoInterval >0, \"ico interval >0\");\n        endTime_ = block.timestamp + _icoInterval;\n        require(_tokensAvailable > 0, \"tokens available for ICO >0\");\n        availableTokens_ = _tokensAvailable;\n        require(_minPurchase > 0 && _minPurchase < token.totalSupply());\n        minTokens_ = _minPurchase;\n        require(_maxPurchase <= token.totalSupply());\n        maxTokens_ = _maxPurchase;\n        priceOfToken_ = _tokenPrice;\n        amountRaised_ =0;\n       \n}\n\n\nfunction buy(uint _quantity) payable external icoIsActive returns (bool success){\n    require(_quantity > minTokens_ && _quantity < maxTokens_ ,\"out of token limits\");\n    require(msg.value >= _quantity * priceOfToken_ , \"ETH sent is insufficient\");\n    require(availableTokens_ >= _quantity , \"less tokens are available\");\n    purchaseRecord[msg.sender]= _quantity;\n    availableTokens_ -= _quantity;\n    investors.push(msg.sender);\n    amountRaised_ += _quantity * priceOfToken_ ;\n    return true;\n}\n\nfunction releaseTokens() external onlyAdmin icoInactive{\n    ERC20Token tokenInstance = ERC20Token(token);\n    for(uint i =0; i< investors.length; i++){\n        address buyer = investors[i];\n        tokenInstance.transfer(buyer, purchaseRecord[buyer]);\n    }\n    tokensReleased_ =true;\n}\n\nfunction withdraw(address payable _to) external onlyAdmin icoInactive TokensReleased{\n     _to.transfer(amountRaised_);\n}\n\nfunction close() external onlyAdmin{\nselfdestruct(admin_);\n}\n\n//modifiers\n\nmodifier onlyAdmin(){\n    require(msg.sender == admin_);\n    _;\n}\n\nmodifier icoInactive(){\n    require(endTime_ == 0 || endTime_ <= block.timestamp);\n    _;\n}\n\nmodifier icoIsActive(){\n    require(block.timestamp < endTime_);\n    _;\n}\n\nmodifier TokensReleased(){\n    require(tokensReleased_ == true);\n    _;\n}\n\n}\n\n// constructor : creates a token, number of tokens allocated to ICO, msg.sender as owner of ICO(on selfdestruct, remaining coins will be transferred to the owner)\n//\n//start sale : min & max no of tokens limit, value of 1 token in ETh, ICO start and end time in ms, available tokens\n//can be started only by admin and when no ico is in progress\n//\n//buy() : after the required checks,  add the buyer to the investor list along with the number of tokens purchased, update the available no of tokens\n//\n//Releasetokens() : transfer tokens in the investor list (after sale end and only by admin)\n//\n//withdraw() : withdraw the amount raised\n//",
  "sourcePath": "/home/falcon46/Documents/Portfolio/main/ERC20-Token/contracts/ICO.sol",
  "compiler": {
    "name": "solc",
    "version": "0.8.11+commit.d7f03943.Emscripten.clang"
  },
  "schemaVersion": "3.4.4",
  "updatedAt": "2022-02-04T04:00:09.692Z",
  "networkType": "ethereum",
  "devdoc": {
    "kind": "dev",
    "methods": {},
    "version": 1
  },
  "userdoc": {
    "kind": "user",
    "methods": {},
    "version": 1
  }
}